{
  "abi": [
    {
      "inputs": [
        {
          "internalType": "contract CTokenInterface",
          "name": "cToken",
          "type": "address"
        }
      ],
      "name": "buildCTokenAllData",
      "outputs": [
        {
          "components": [
            {
              "internalType": "address",
              "name": "cToken",
              "type": "address"
            },
            {
              "internalType": "uint256",
              "name": "exchangeRateCurrent",
              "type": "uint256"
            },
            {
              "internalType": "uint256",
              "name": "supplyRatePerBlock",
              "type": "uint256"
            },
            {
              "internalType": "uint256",
              "name": "borrowRatePerBlock",
              "type": "uint256"
            },
            {
              "internalType": "uint256",
              "name": "reserveFactorMantissa",
              "type": "uint256"
            },
            {
              "internalType": "uint256",
              "name": "totalBorrows",
              "type": "uint256"
            },
            {
              "internalType": "uint256",
              "name": "totalReserves",
              "type": "uint256"
            },
            {
              "internalType": "uint256",
              "name": "totalSupply",
              "type": "uint256"
            },
            {
              "internalType": "uint256",
              "name": "totalCash",
              "type": "uint256"
            },
            {
              "internalType": "bool",
              "name": "isListed",
              "type": "bool"
            },
            {
              "internalType": "uint256",
              "name": "collateralFactorMantissa",
              "type": "uint256"
            },
            {
              "internalType": "address",
              "name": "underlyingAssetAddress",
              "type": "address"
            },
            {
              "internalType": "uint256",
              "name": "cTokenDecimals",
              "type": "uint256"
            },
            {
              "internalType": "uint256",
              "name": "underlyingDecimals",
              "type": "uint256"
            },
            {
              "internalType": "uint256",
              "name": "compSupplySpeed",
              "type": "uint256"
            },
            {
              "internalType": "uint256",
              "name": "compBorrowSpeed",
              "type": "uint256"
            },
            {
              "internalType": "uint256",
              "name": "borrowCap",
              "type": "uint256"
            },
            {
              "internalType": "bool",
              "name": "mintGuardianPaused",
              "type": "bool"
            },
            {
              "internalType": "uint256",
              "name": "underlyingPrice",
              "type": "uint256"
            }
          ],
          "internalType": "struct SleuthLens.CTokenAllData",
          "name": "",
          "type": "tuple"
        }
      ],
      "stateMutability": "nonpayable",
      "type": "function"
    },
    {
      "inputs": [
        {
          "internalType": "contract CTokenInterface",
          "name": "cToken",
          "type": "address"
        },
        {
          "internalType": "address payable",
          "name": "account",
          "type": "address"
        }
      ],
      "name": "cTokenBalances",
      "outputs": [
        {
          "components": [
            {
              "internalType": "address",
              "name": "cToken",
              "type": "address"
            },
            {
              "internalType": "uint256",
              "name": "balanceOf",
              "type": "uint256"
            },
            {
              "internalType": "uint256",
              "name": "borrowBalanceCurrent",
              "type": "uint256"
            },
            {
              "internalType": "uint256",
              "name": "balanceOfUnderlying",
              "type": "uint256"
            },
            {
              "internalType": "uint256",
              "name": "tokenBalance",
              "type": "uint256"
            },
            {
              "internalType": "uint256",
              "name": "tokenAllowance",
              "type": "uint256"
            }
          ],
          "internalType": "struct SleuthLens.CTokenBalances",
          "name": "",
          "type": "tuple"
        }
      ],
      "stateMutability": "nonpayable",
      "type": "function"
    },
    {
      "inputs": [
        {
          "internalType": "contract ComptrollerLensInterface",
          "name": "comptroller",
          "type": "address"
        },
        {
          "internalType": "address",
          "name": "account",
          "type": "address"
        }
      ],
      "name": "getAccountLimits",
      "outputs": [
        {
          "components": [
            {
              "internalType": "contract CTokenInterface[]",
              "name": "markets",
              "type": "address[]"
            },
            {
              "internalType": "uint256",
              "name": "liquidity",
              "type": "uint256"
            },
            {
              "internalType": "uint256",
              "name": "shortfall",
              "type": "uint256"
            }
          ],
          "internalType": "struct SleuthLens.AccountLimits",
          "name": "",
          "type": "tuple"
        }
      ],
      "stateMutability": "view",
      "type": "function"
    },
    {
      "inputs": [
        {
          "internalType": "contract CompInterface",
          "name": "comp",
          "type": "address"
        },
        {
          "internalType": "contract ComptrollerLensInterface",
          "name": "comptroller",
          "type": "address"
        },
        {
          "internalType": "address",
          "name": "account",
          "type": "address"
        }
      ],
      "name": "getCompBalanceMetadataExt",
      "outputs": [
        {
          "components": [
            {
              "internalType": "uint256",
              "name": "balance",
              "type": "uint256"
            },
            {
              "internalType": "uint256",
              "name": "votes",
              "type": "uint256"
            },
            {
              "internalType": "address",
              "name": "delegate",
              "type": "address"
            },
            {
              "internalType": "uint256",
              "name": "allocated",
              "type": "uint256"
            }
          ],
          "internalType": "struct SleuthLens.CompBalanceMetadataExt",
          "name": "",
          "type": "tuple"
        }
      ],
      "stateMutability": "nonpayable",
      "type": "function"
    },
    {
      "inputs": [
        {
          "internalType": "contract CTokenInterface[]",
          "name": "cTokens",
          "type": "address[]"
        }
      ],
      "name": "queryAllNoAccount",
      "outputs": [
        {
          "components": [
            {
              "internalType": "uint256",
              "name": "closeFactorMantissa",
              "type": "uint256"
            },
            {
              "internalType": "uint256",
              "name": "liquidationIncentiveMantissa",
              "type": "uint256"
            },
            {
              "components": [
                {
                  "internalType": "address",
                  "name": "cToken",
                  "type": "address"
                },
                {
                  "internalType": "uint256",
                  "name": "exchangeRateCurrent",
                  "type": "uint256"
                },
                {
                  "internalType": "uint256",
                  "name": "supplyRatePerBlock",
                  "type": "uint256"
                },
                {
                  "internalType": "uint256",
                  "name": "borrowRatePerBlock",
                  "type": "uint256"
                },
                {
                  "internalType": "uint256",
                  "name": "reserveFactorMantissa",
                  "type": "uint256"
                },
                {
                  "internalType": "uint256",
                  "name": "totalBorrows",
                  "type": "uint256"
                },
                {
                  "internalType": "uint256",
                  "name": "totalReserves",
                  "type": "uint256"
                },
                {
                  "internalType": "uint256",
                  "name": "totalSupply",
                  "type": "uint256"
                },
                {
                  "internalType": "uint256",
                  "name": "totalCash",
                  "type": "uint256"
                },
                {
                  "internalType": "bool",
                  "name": "isListed",
                  "type": "bool"
                },
                {
                  "internalType": "uint256",
                  "name": "collateralFactorMantissa",
                  "type": "uint256"
                },
                {
                  "internalType": "address",
                  "name": "underlyingAssetAddress",
                  "type": "address"
                },
                {
                  "internalType": "uint256",
                  "name": "cTokenDecimals",
                  "type": "uint256"
                },
                {
                  "internalType": "uint256",
                  "name": "underlyingDecimals",
                  "type": "uint256"
                },
                {
                  "internalType": "uint256",
                  "name": "compSupplySpeed",
                  "type": "uint256"
                },
                {
                  "internalType": "uint256",
                  "name": "compBorrowSpeed",
                  "type": "uint256"
                },
                {
                  "internalType": "uint256",
                  "name": "borrowCap",
                  "type": "uint256"
                },
                {
                  "internalType": "bool",
                  "name": "mintGuardianPaused",
                  "type": "bool"
                },
                {
                  "internalType": "uint256",
                  "name": "underlyingPrice",
                  "type": "uint256"
                }
              ],
              "internalType": "struct SleuthLens.CTokenAllData[]",
              "name": "cTokens",
              "type": "tuple[]"
            }
          ],
          "internalType": "struct SleuthLens.NoAccountAllData",
          "name": "",
          "type": "tuple"
        }
      ],
      "stateMutability": "nonpayable",
      "type": "function"
    },
    {
      "inputs": [
        {
          "internalType": "contract CTokenInterface[]",
          "name": "cTokens",
          "type": "address[]"
        },
        {
          "internalType": "address payable",
          "name": "account",
          "type": "address"
        },
        {
          "internalType": "contract CompInterface",
          "name": "comp",
          "type": "address"
        },
        {
          "internalType": "address",
          "name": "capFactory",
          "type": "address"
        }
      ],
      "name": "queryAllWithAccount",
      "outputs": [
        {
          "components": [
            {
              "internalType": "uint256",
              "name": "closeFactorMantissa",
              "type": "uint256"
            },
            {
              "internalType": "uint256",
              "name": "liquidationIncentiveMantissa",
              "type": "uint256"
            },
            {
              "internalType": "contract CTokenInterface[]",
              "name": "marketsIn",
              "type": "address[]"
            },
            {
              "internalType": "uint256",
              "name": "liquidity",
              "type": "uint256"
            },
            {
              "internalType": "uint256",
              "name": "shortfall",
              "type": "uint256"
            },
            {
              "components": [
                {
                  "internalType": "uint256",
                  "name": "balance",
                  "type": "uint256"
                },
                {
                  "internalType": "uint256",
                  "name": "votes",
                  "type": "uint256"
                },
                {
                  "internalType": "address",
                  "name": "delegate",
                  "type": "address"
                },
                {
                  "internalType": "uint256",
                  "name": "allocated",
                  "type": "uint256"
                }
              ],
              "internalType": "struct SleuthLens.CompBalanceMetadataExt",
              "name": "compMetadata",
              "type": "tuple"
            },
            {
              "internalType": "uint256",
              "name": "capFactoryAllowance",
              "type": "uint256"
            },
            {
              "components": [
                {
                  "internalType": "address",
                  "name": "cToken",
                  "type": "address"
                },
                {
                  "internalType": "uint256",
                  "name": "exchangeRateCurrent",
                  "type": "uint256"
                },
                {
                  "internalType": "uint256",
                  "name": "supplyRatePerBlock",
                  "type": "uint256"
                },
                {
                  "internalType": "uint256",
                  "name": "borrowRatePerBlock",
                  "type": "uint256"
                },
                {
                  "internalType": "uint256",
                  "name": "reserveFactorMantissa",
                  "type": "uint256"
                },
                {
                  "internalType": "uint256",
                  "name": "totalBorrows",
                  "type": "uint256"
                },
                {
                  "internalType": "uint256",
                  "name": "totalReserves",
                  "type": "uint256"
                },
                {
                  "internalType": "uint256",
                  "name": "totalSupply",
                  "type": "uint256"
                },
                {
                  "internalType": "uint256",
                  "name": "totalCash",
                  "type": "uint256"
                },
                {
                  "internalType": "bool",
                  "name": "isListed",
                  "type": "bool"
                },
                {
                  "internalType": "uint256",
                  "name": "collateralFactorMantissa",
                  "type": "uint256"
                },
                {
                  "internalType": "address",
                  "name": "underlyingAssetAddress",
                  "type": "address"
                },
                {
                  "internalType": "uint256",
                  "name": "cTokenDecimals",
                  "type": "uint256"
                },
                {
                  "internalType": "uint256",
                  "name": "underlyingDecimals",
                  "type": "uint256"
                },
                {
                  "internalType": "uint256",
                  "name": "compSupplySpeed",
                  "type": "uint256"
                },
                {
                  "internalType": "uint256",
                  "name": "compBorrowSpeed",
                  "type": "uint256"
                },
                {
                  "internalType": "uint256",
                  "name": "borrowCap",
                  "type": "uint256"
                },
                {
                  "internalType": "bool",
                  "name": "mintGuardianPaused",
                  "type": "bool"
                },
                {
                  "internalType": "uint256",
                  "name": "underlyingPrice",
                  "type": "uint256"
                },
                {
                  "internalType": "uint256",
                  "name": "balanceOf",
                  "type": "uint256"
                },
                {
                  "internalType": "uint256",
                  "name": "borrowBalanceCurrent",
                  "type": "uint256"
                },
                {
                  "internalType": "uint256",
                  "name": "balanceOfUnderlying",
                  "type": "uint256"
                },
                {
                  "internalType": "uint256",
                  "name": "tokenBalance",
                  "type": "uint256"
                },
                {
                  "internalType": "uint256",
                  "name": "tokenAllowance",
                  "type": "uint256"
                }
              ],
              "internalType": "struct SleuthLens.CTokenAllDataWithAccount[]",
              "name": "cTokens",
              "type": "tuple[]"
            }
          ],
          "internalType": "struct SleuthLens.AccountAllData",
          "name": "",
          "type": "tuple"
        }
      ],
      "stateMutability": "nonpayable",
      "type": "function"
    }
  ],
  "bytecode": {
    "object": "0x608080604052346100165761265e908161001c8239f35b600080fdfe610360604052600436101561001357600080fd5b6000803560e01c80631ea6374114610d1457806348ad685d146104255780635d2bb247146101665780637dd8f6d9146101055780639b56b5cc146100d15763bdf950c91461006057600080fd5b346100ce5760403660031901126100ce5760c061008c61007e6110a9565b6100866110d5565b90612062565b60a060405191600180831b03815116835260208101516020840152604081015160408401526060810151606084015260808101516080840152015160a0820152f35b80fd5b50346100ce5760203660031901126100ce576102606100f66100f16110a9565b6114e8565b6101036040518092611158565bf35b50346100ce5760403660031901126100ce576101306101226110a9565b61012a6110d5565b906123ce565b6040518091602082526040610151825160606020860152608085019061111b565b91602081015182850152015160608301520390f35b50346100ce57602080600319360112610421576004356001600160401b03811161041d576101989036906004016110eb565b90916060604080516101a981611294565b868152868482015201526101bc82611fd8565b6101c96040519182611301565b828152601f196101d884611fd8565b0182865b82811061040757505050845b8381106103cd575084938593158015610279575b5050604051919261020c83611294565b8252828201938452604082019081526040519383855260808501925184860152516040850152519160608085015282518092528060a085019301945b8281106102555784840385f35b909192826102608261026a6001948a51611158565b01960191019492919094610248565b9193509193506103b9576001600160a01b039084908490839061029b9061203a565b16600460405180948193635fe3b56760e01b83525af1908115610347578591610380575b501691604051634ada90af60e01b81528181600481875afa80156103475782908690610352575b60049250946040519283809263743aaa2360e11b82525afa908115610347578591610315575b509138806101fc565b90508181813d8311610340575b61032c8183611301565b8101031261033b57513861030c565b600080fd5b503d610322565b6040513d87823e3d90fd5b5081813d8311610379575b6103678183611301565b8101031261033b5781600491516102e6565b503d61035d565b90508381813d83116103b2575b6103978183611301565b810103126103ae576103a8906113ad565b386102bf565b8480fd5b503d61038d565b634e487b7160e01b84526032600452602484fd5b806103e76100f16103e261040294888a612014565b61203a565b6103f1828561204e565b526103fc818461204e565b50611fef565b6101e8565b61040f611322565b8282860101520183906101dc565b8280fd5b5080fd5b50346100ce5760803660031901126100ce576004356001600160401b038111610421576104569036906004016110eb565b6104619291926110d5565b9061046a6110bf565b6064356001600160a01b038116900361033b57606060e060405161048d8161125c565b86815286602082015282604082015286838201528660808201526104af612568565b60a08201528660c082015201526104c582611fd8565b926104d36040519485611301565b828452601f196104e284611fd8565b01855b818110610c5d575050845b838110610a475750849585966060908792889489968a908b928c948d9b158015610755575b50505050604051976105268961122b565b8852602088015260018060a01b0316604087015260608601526040519861054c8a61125c565b8952602089015260408801526060870152608086015260a085015260c084015260e083015260405191829160208352815160208401526020820151604084015260e06105a96040840151610160606087015261018086019061111b565b60608085015160808781019190915285015160a080880191909152850151805160c0880152602081015160e088015260408101516001600160a01b031661010088015201516101208601529260c0810151610140860152015191601f1984820301610160850152602080845192838152019301915b81811061062c575050500390f35b9193509160206103006001928651848060a01b038151168252838101518483015260408101516040830152606081015160608301526080810151608083015260a081015160a083015260c081015160c083015260e081015160e0830152610100808201519083015261012080820151151590830152610140810151610140830152848060a01b03610160820151166101608301526101808101516101808301526101a080820151908301526101c080820151908301526101e080820151908301526102008082015190830152610220808201511515908301526102408082015190830152610260808201519083015261028080820151908301526102a080820151908301526102c080820151908301526102e0809101519082015201940191019184939261061e565b9950995099509b505050505050506103b95783906020906001600160a01b039061077e9061203a565b16600460405180948193635fe3b56760e01b83525af1908115610a3c5784916109fe575b50604051634ada90af60e01b81526020816004816001600160a01b0386165afa9081156103475785916109cc575b5060405163743aaa2360e11b81529095906020816004816001600160a01b0387165afa9081156109c157869161098f575b50956108196001600160a01b038581169085166123ce565b805160208201516040928301519251631ea6374160e01b81526001600160a01b038087166004830152968716602482015295871660448701529193919290916080866064818c305af1958615610984578996610918575b5085516020808801516040808a01516060909a01519051636eb1769f60e11b81526001600160a01b039b8c1660048201526064358c166024820152919a939990949084169391929183916044918391165afa90811561090d578b916108db575b509738808080610515565b90506020813d602011610905575b816108f660209383611301565b8101031261033b5751386108d0565b3d91506108e9565b6040513d8d823e3d90fd5b9095506080813d60801161097c575b8161093460809383611301565b810103126109785760606040519161094b8361122b565b8051835260208101516020840152610965604082016113ad565b6040840152015160608201529438610870565b8880fd5b3d9150610927565b6040513d8b823e3d90fd5b90506020813d6020116109b9575b816109aa60209383611301565b8101031261033b575138610801565b3d915061099d565b6040513d88823e3d90fd5b90506020813d6020116109f6575b816109e760209383611301565b8101031261033b5751386107d0565b3d91506109da565b90506020813d602011610a34575b81610a1960209383611301565b81010312610a3057610a2a906113ad565b386107a2565b8380fd5b3d9150610a0c565b6040513d86823e3d90fd5b610a52818589612014565b610a5b9061203a565b610a64906114e8565b808084610a7285898d612014565b610a7b9061203a565b90610a8591612062565b806101e052600160a01b60019003825116602083015160e052604083015160c0526060830151608084015160a085015160c086015160e087015190610100880151926101208901511515946101408a015196600160a01b600190036101608c015116986101808c01519a6101a08d01519c6101c001519d6101e001519e6102008101516101605261022081015115156101405261024001516101805260208101516101005260408101516101c05260608101516101205260808101516101a05260a0015160a05260405180608052610b5c90611278565b6080515260e0516080516020015260c05160805160400152608051606001526080516080015260805160a0015260805160c0015260805160e00152608051610100015260805161012001526080516101400152608051610160015260805161018001526080516101a001526080516101c001526080516101e001526101605160805161020001526101405160805161022001526101805160805161024001526101005160805161026001526101c0516080516102800152610120516080516102a001526101a0516080516102c0015260a0516080516102e00152608051610c43828761204e565b52610c4e818661204e565b50610c5890611fef565b6104f0565b602090604051610c6c81611278565b88815288838201528860408201528860608201528860808201528860a08201528860c08201528860e08201528861010082015288610120820152886101408201528861016082015288610180820152886101a0820152886101c0820152886101e08201528861020082015288610220820152886102408201528861026082015288610280820152886102a0820152886102c0820152886102e0820152828289010152016104e5565b50346100ce5760603660031901126100ce57610d2e6110a9565b610d366110d5565b610d3e6110bf565b92610d47612568565b5060018060a01b038093169260405191816370a0823160e01b9687855216806004850152602090602495828688818b5afa958615610a3c57849661107a575b508416803b15610a30576040516374d7814960e11b8152600481018390528481898183865af180156103475761104c575b506040519889528160048a0152828988818b5afa908115610a3c57879899859897989261101a575b5083906040519788809263331faf7160e21b82528660048301525afa958615610a3c578496610feb575b5060405190610e17826112e6565b600e82526d1cdd5b4818dbdb5c081d1bdd185b60921b8483015280198711610fd85790610e49918701968710156125e2565b610e7a604051610e58816112e6565b600d81526c1cdd5888185b1b1bd8d85d1959609a1b84820152868811156125e2565b858510610fc55760405163b4b5ea5760e01b81526004810182905296828882818c5afa978815610a3c578498610f81575b50908291604051809a8193632c3e6f0f60e11b835260048301525afa918215610f75578092610f3b575b50608096506bffffffffffffffffffffffff60405196610ef48861122b565b8688521690860152166040840152036060820152610103604051809260608091805184526020810151602085015260018060a01b0360408201511660408501520151910152565b9080925087813d8311610f6e575b610f538183611301565b810103126100ce5750610f676080966113ad565b9038610ed5565b503d610f49565b604051903d90823e3d90fd5b9097508281813d8311610fbe575b610f998183611301565b81010312610a3057516bffffffffffffffffffffffff81168103610a30579682610eab565b503d610f8f565b634e487b7160e01b835260116004528683fd5b634e487b7160e01b855260116004528885fd5b9095508281813d8311611013575b6110038183611301565b8101031261033b57519438610e09565b503d610ff9565b965090508286813d8111611045575b6110338183611301565b8101031261033b579451879583610ddf565b503d611029565b6001600160401b038195929511611067576040529238610db7565b634e487b7160e01b825260416004528782fd5b9095508281813d83116110a2575b6110928183611301565b81010312610a3057519484610d86565b503d611088565b600435906001600160a01b038216820361033b57565b604435906001600160a01b038216820361033b57565b602435906001600160a01b038216820361033b57565b9181601f8401121561033b578235916001600160401b03831161033b576020808501948460051b01011161033b57565b90815180825260208080930193019160005b82811061113b575050505090565b83516001600160a01b03168552938101939281019260010161112d565b60018060a01b038082511683526020820151602084015260408201516040840152606082015160608401526080820151608084015260a082015160a084015260c082015160c084015260e082015160e084015261010080830151908401526101208083015115159084015261014080830151908401526101609081830151169083015261018080820151908301526101a080820151908301526101c080820151908301526101e0808201519083015261020080820151908301526102208082015115159083015261024080910151910152565b608081019081106001600160401b0382111761124657604052565b634e487b7160e01b600052604160045260246000fd5b61010081019081106001600160401b0382111761124657604052565b61030081019081106001600160401b0382111761124657604052565b606081019081106001600160401b0382111761124657604052565b61026081019081106001600160401b0382111761124657604052565b60c081019081106001600160401b0382111761124657604052565b604081019081106001600160401b0382111761124657604052565b90601f801991011681019081106001600160401b0382111761124657604052565b6040519061132f826112af565b816102406000918281528260208201528260408201528260608201528260808201528260a08201528260c08201528260e08201528261010082015282610120820152826101408201528261016082015282610180820152826101a0820152826101c0820152826101e082015282610200820152826102208201520152565b51906001600160a01b038216820361033b57565b5190811515820361033b57565b6001600160401b03811161124657601f01601f191660200190565b918091926000905b828210611409575011611402575050565b6000910152565b915080602091830151818601520182916113f1565b60208183031261033b578051906001600160401b03821161033b570181601f8201121561033b578051611450816113ce565b9261145e6040519485611301565b8184526020828401011161033b5761147c91602080850191016113e9565b90565b6040519061148c826112e6565b60048252630c68aa8960e31b6020830152565b9081602091031261033b575160ff8116810361033b5790565b3d156114e3573d906114c9826113ce565b916114d76040519384611301565b82523d6000602084013e565b606090565b6114f0611322565b5060405163bd6d894d60e01b815260208160048160006001600160a01b0387165af18015611abb5760006102a052611fa4575b50604051635fe3b56760e01b81529060208260048160006001600160a01b0386165af1918215611abb57600092611f68575b5060408051638e8f294b60e01b81526001600160a01b038381166004830152909391908490602490829085165afa918215611abb57600093600093611f26575b506040516395d89b4160e01b81526000816004816001600160a01b0386165afa8015611abb576115d691600091611f03575b506115d061147f565b9061258d565b15611dd45760129160005b6000946000806040516020810160018060a01b038816815260208252611606826112e6565b61163e6024604051809361162e6020830196636aa875b560e01b8852518092858501906113e9565b8101036004810184520182611301565b5190826001600160a01b0388165af196876116576114b8565b90611db9575b506000976000806040516020810160018060a01b038a16815260208252611683826112e6565b6116ab6024604051809361162e60208301966303d290cf60e61b8852518092858501906113e9565b5190826001600160a01b038a165af190816116c46114b8565b90611d9e575b5015908115611d95575b50611d05575b6000610220526000806040516020810160018060a01b038916815260208252611702826112e6565b61172a6024604051809361162e602083019663252c221960e11b8852518092858501906113e9565b5190826001600160a01b0389165af16117416114b8565b90611cea575b506040516307dc0d1d60e41b81526020816004816001600160a01b0389165afa8015611abb5760006102c052611ca6575b50604051630ae9d70b60e41b81526020816004816001600160a01b038a165afa8015611abb57600061024052611c72575b50604051631f1f3b4560e31b8152936020856004816001600160a01b038a165afa948515611abb57600095611c3e575b506040516305cee64160e21b8152946020866004816001600160a01b038b165afa958615611abb57600096611c0a575b506040516308f7a6e360e31b81526020816004816001600160a01b038c165afa908115611abb57600091611bd8575b50604051638f840ddd60e01b8152906020826004816001600160a01b038d165afa918215611abb57600092611ba4575b506040516318160ddd60e01b8152976020896004816001600160a01b038e165afa938415611abb57600094611b6f575b604051631d8e90d160e11b8152995060208a6004816001600160a01b038f165afa958615611abb57600096611b3a575b60049a5060208c6040519c8d809263313ce56760e01b825260018060a01b03165afa9a8b15611abb5760009b611b08575b50602090604051806103005263731f0c2b60e01b905260018060a01b038d166004610300510152602461030051809260018060a01b03165afa806103205215611abb5760006102805261032051611ac7575b604051806102e05263fc57d4df60e01b905260018060a01b038b1660046102e051015260206102e05160248160018060a01b036102c051165afa806103405215611abb5760006102605261034051611a7f575b60ff9a6119b160405180610200526112af565b60018060a01b031661020051526102a05160206102005101526102405160406102005101526060610200510152608061020051015260a061020051015260c061020051015260e0610200510152610100610200510152151561012061020051015261014061020051015260018060a01b0316610160610200510152166101806102005101526101a06102005101526101c06102005101526101e06102005101526102205161020080510152610280511515610220610200510152610260516102406102005101526102005190565b60209a3d602011611ab3575b611a988c6102e051611301565b60206102e051809d8101031261033b579a516102605261199e565b3d9b50611a8b565b6040513d6000823e3d90fd5b60203d602011611b01575b611adf8161030051611301565b60206103005180928101031261033b57611af8906113c1565b6102805261194b565b503d611ad2565b6020919b50611b2c90823d8411611b33575b611b248183611301565b81019061149f565b9a906118f9565b503d611b1a565b955060208a3d602011611b67575b81611b5560209383611301565b8101031261033b5760049951956118c8565b3d9150611b48565b93506020893d602011611b9c575b81611b8a60209383611301565b8101031261033b576004985193611898565b3d9150611b7d565b9091506020813d602011611bd0575b81611bc060209383611301565b8101031261033b57519038611868565b3d9150611bb3565b90506020813d602011611c02575b81611bf360209383611301565b8101031261033b575138611838565b3d9150611be6565b9095506020813d602011611c36575b81611c2660209383611301565b8101031261033b57519438611809565b3d9150611c19565b9094506020813d602011611c6a575b81611c5a60209383611301565b8101031261033b575193386117d9565b3d9150611c4d565b6020813d602011611c9e575b81611c8b60209383611301565b8101031261033b575161024052386117a9565b3d9150611c7e565b6020813d602011611ce2575b81611cbf60209383611301565b8101031261033b57516001600160a01b038116810361033b576102c05238611778565b3d9150611cb2565b60208180518101031261033b57602001516102205238611747565b6040516001600160a01b038616602080830191825282526000918291611d2a826112e6565b611d526024604051809361162e6020830196631d7b33d760e01b8852518092858501906113e9565b5190826001600160a01b0389165af1611d696114b8565b90611d75575b506116da565b80809399506020929850518101031261033b576020015195869538611d6f565b905015386116d4565b90995060208180518101031261033b576020015198386116ca565b90965060208180518101031261033b5760200151953861165d565b604051636f307dc360e01b80825292906020816004816001600160a01b0387165afa908115611abb57600091611ec9575b50604051938452926020816004816001600160a01b0387165afa908115611abb57600091611e8a575b5060405163313ce56760e01b815290602090829060049082906001600160a01b03165afa8015611abb5760ff91600091611e6b575b5016926115e1565b611e84915060203d602011611b3357611b248183611301565b38611e63565b90506020813d602011611ec1575b81611ea560209383611301565b8101031261033b576020611eba6004926113ad565b9150611e2e565b3d9150611e98565b90506020813d602011611efb575b81611ee460209383611301565b8101031261033b57611ef5906113ad565b38611e05565b3d9150611ed7565b611f2091503d806000833e611f188183611301565b81019061141e565b386115c7565b935091506040833d604011611f60575b81611f4360409383611301565b8101031261033b576020611f56846113c1565b9301519138611595565b3d9150611f36565b9091506020813d602011611f9c575b81611f8460209383611301565b8101031261033b57611f95906113ad565b9038611555565b3d9150611f77565b6020813d602011611fd0575b81611fbd60209383611301565b8101031261033b57516102a05238611523565b3d9150611fb0565b6001600160401b0381116112465760051b60200190565b6000198114611ffe5760010190565b634e487b7160e01b600052601160045260246000fd5b91908110156120245760051b0190565b634e487b7160e01b600052603260045260246000fd5b356001600160a01b038116810361033b5790565b80518210156120245760209160051b010190565b9190604090815190612073826112cb565b60008083528060a060209482868201528287820152826060820152826080820152015260018060a01b03809616938051966370a0823160e01b938489528181169460049186838c0152878b6024818c5afa9384156123c4578694612392575b899a9b508888999a6024899a89519a8b9384926305eff7ef60e21b84528a8401525af1968715612388579088939291849861234d575b508a8c60248c8a519c8d938492633af9e66960e01b84528b8401525af1988915612343578499612314575b5084848d8951928380926395d89b4160e01b82525afa90811561230a57906121649186916122f657506115d061147f565b1561219a57505050505084319431955b825197612180896112cb565b88528701528501526060840152608083015260a082015290565b848b8d899c9596979c5192838092636f307dc360e01b82525afa9081156122ec5786916122b3575b5016918651938452898401528983602481855afa9283156122a957918b918b938695612271575b508751636eb1769f60e11b81526001600160a01b039182169b81019b8c52921660208b0152929890928391829081906040015b03915afa918215612266578092612236575b505095612174565b9091508782813d831161225f575b61224e8183611301565b810103126100ce575051388061222e565b503d612244565b8451903d90823e3d90fd5b92509290935081813d83116122a2575b61228b8183611301565b81010312610a305761221c928a928c9251946121e9565b503d612281565b86513d86823e3d90fd5b90508b81813d83116122e5575b6122ca8183611301565b810103126122e1576122db906113ad565b386121c2565b8580fd5b503d6122c0565b88513d88823e3d90fd5b611f2091503d8088833e611f188183611301565b88513d87823e3d90fd5b9098508a81813d831161233c575b61232c8183611301565b81010312610a3057519738612133565b503d612322565b87513d86823e3d90fd5b8b8092995081939495503d8311612381575b6123698183611301565b8101031261237d5790879291519638612108565b8780fd5b503d61235f565b86513d8a823e3d90fd5b9350878b813d83116123bd575b6123a98183611301565b810103126122e157995198998a99936120d2565b503d61239f565b85513d88823e3d90fd5b60408051926123dc84611294565b6060845260009384836020928284820152015260018060a01b038094169380845193635ec88c7960e01b85521694856004850152606084602481845afa95861561255e57878895899861251a575b5061237d5787906024875180948193632aff3bff60e21b835260048301525afa96871561250f578097612472575b50505082519461246786611294565b855284015282015290565b90919296503d8082843e6124868184611301565b8201918781840312610421578051906001600160401b03821161041d57019282601f85011215610421578351916124bc83611fd8565b946124c988519687611301565b838652898087019460051b820101948511610421578901925b8484106124f757505050505093388080612458565b8351838116810361041d5781529289019289016124e2565b8551903d90823e3d90fd5b97505093506060863d8211612556575b8161253760609383611301565b8101031261255257855183870151968601519694903861242a565b8680fd5b3d915061252a565b85513d89823e3d90fd5b604051906125758261122b565b60006060838281528260208201528260408201520152565b90604051916020926125bb8482816125ae81830196878151938492016113e9565b8101038084520182611301565b519020916125db6040519182816125ae81830196878151938492016113e9565b5190201490565b156125ea5750565b6044604051809262461bcd60e51b82526020600483015261261a81518092816024860152602086860191016113e9565b601f01601f19168101030190fdfea26469706673582212208c93c369f5e16f710de024b3e74c6ac7a04b8ec2ce37e0a0a91773f3cc0a702864736f6c634300080f0033",
    "linkReferences": {}
  },
  "methodIdentifiers": {
    "buildCTokenAllData(address)": "9b56b5cc",
    "cTokenBalances(address,address)": "bdf950c9",
    "getAccountLimits(address,address)": "7dd8f6d9",
    "getCompBalanceMetadataExt(address,address,address)": "1ea63741",
    "queryAllNoAccount(address[])": "5d2bb247",
    "queryAllWithAccount(address[],address,address,address)": "48ad685d"
  },
  "id": 0
}